:020000023000CC
:10FC000001C0E0C0112484B790E890936100109285
:10FC10006100882369F0982F9A70923049F081FF33
:10FC200002C097EF94BF282E80E0EFD00C94000024
:10FC300085E08093810082E08093C00088E180931A
:10FC4000C10083E08093C40086E08093C2008EE010
:10FC5000DCD08091010180628093010184E028E181
:10FC60003EEF41E0309385002093840046BBB09B7B
:10FC7000FECF90910001906290930001A895909121
:10FC8000C00097FD02C0815069F7B3D0813479F488
:10FC9000B0D0C82FC0D0C23811F480E004C088E0D2
:10FCA000C13809F083E09ED080E19CD0EECF823451
:10FCB00019F484E1B8D0F8CF853411F485E0FACF97
:10FCC000853581F496D0082F94D0182F87FF07C070
:10FCD0008BB781608BBF000F111F9DD0E5CF8BB715
:10FCE0008E7FF8CF863579F484D08D3451F481D06D
:10FCF000CBB77FD0C170880F8C2B8BBF81E093D0A6
:10FD0000CCCF83E0FCCF843609F03AC072D0C82F44
:10FD1000D0E0DC2FCC276DD0C82B6BD0D82E5E0165
:10FD20008EEFB81AE12C32E0F32E4701EFEF8E1A76
:10FD30009E0A5FD0F701808374018A149B04A9F79F
:10FD40006AD0F5E4DF1201C0FFCF50E040E063E08D
:10FD5000C80138D07801C12C92E0D92EF60141912A
:10FD600051916F0161E0C7012DD0F2E0EF0EF11C5F
:10FD70002297A1F750E040E065E0C80123D094CF7E
:10FD8000843789F436D0C82FD0E0DC2FCC2731D08F
:10FD9000C82B2FD040D07801F70187917F0122D066
:10FDA0002197D1F781CF853739F435D08EE11AD03C
:10FDB00088E918D081E077CF813509F08ECF88E0CF
:10FDC00024D08BCFFC010A0167BFE895112407B648
:10FDD00000FCFDCF667029F0452B19F481E187BF47
:10FDE000E89508959091C00095FFFCCF8093C600E0
:10FDF00008958091C00087FFFCCF8091C00084FDF2
:10FE000001C0A8958091C6000895E0E6F0E098E171
:10FE1000908380830895EDDF803219F088E0F5DF6C
:10FE2000FFCF84E1DFCFCF93C82FE3DFC150E9F7E5
:04FE3000CF91F1CFAE
:02FFFE000008F9
:040000033000FC00CD
:00000001FF
